{
  "contractName": "BenevoleConnect",
  "abi": [
    {
      "constant": true,
      "inputs": [
        {
          "name": "",
          "type": "address"
        }
      ],
      "name": "organizerEventsCount",
      "outputs": [
        {
          "name": "",
          "type": "uint256"
        }
      ],
      "payable": false,
      "stateMutability": "view",
      "type": "function",
      "signature": "0x04424a71"
    },
    {
      "constant": true,
      "inputs": [
        {
          "name": "",
          "type": "uint256"
        }
      ],
      "name": "events",
      "outputs": [
        {
          "name": "nameEvent",
          "type": "string"
        },
        {
          "name": "organizer",
          "type": "address"
        },
        {
          "name": "nbBenevolesNeeded",
          "type": "uint256"
        },
        {
          "name": "nbParticipants",
          "type": "uint256"
        },
        {
          "name": "limitReputation",
          "type": "uint256"
        },
        {
          "name": "recompenseReputation",
          "type": "uint256"
        }
      ],
      "payable": false,
      "stateMutability": "view",
      "type": "function",
      "signature": "0x0b791430"
    },
    {
      "constant": true,
      "inputs": [],
      "name": "eventsCount",
      "outputs": [
        {
          "name": "",
          "type": "uint256"
        }
      ],
      "payable": false,
      "stateMutability": "view",
      "type": "function",
      "signature": "0x39e2e46f"
    },
    {
      "constant": true,
      "inputs": [],
      "name": "benevolesCount",
      "outputs": [
        {
          "name": "",
          "type": "uint256"
        }
      ],
      "payable": false,
      "stateMutability": "view",
      "type": "function",
      "signature": "0x6c0c7851"
    },
    {
      "constant": true,
      "inputs": [
        {
          "name": "",
          "type": "uint256"
        }
      ],
      "name": "eventIDToOrganizer",
      "outputs": [
        {
          "name": "",
          "type": "address"
        }
      ],
      "payable": false,
      "stateMutability": "view",
      "type": "function",
      "signature": "0x6c7fe4f7"
    },
    {
      "constant": true,
      "inputs": [
        {
          "name": "",
          "type": "uint256"
        }
      ],
      "name": "benevoles",
      "outputs": [
        {
          "name": "benevole",
          "type": "address"
        },
        {
          "name": "reputation",
          "type": "uint256"
        },
        {
          "name": "isBlacklisted",
          "type": "bool"
        }
      ],
      "payable": false,
      "stateMutability": "view",
      "type": "function",
      "signature": "0xd512cf8e"
    },
    {
      "constant": true,
      "inputs": [
        {
          "name": "",
          "type": "uint256"
        },
        {
          "name": "",
          "type": "uint256"
        }
      ],
      "name": "eventIDToListParticipantsBenevoles",
      "outputs": [
        {
          "name": "",
          "type": "address"
        }
      ],
      "payable": false,
      "stateMutability": "view",
      "type": "function",
      "signature": "0xdc425139"
    },
    {
      "inputs": [],
      "payable": false,
      "stateMutability": "nonpayable",
      "type": "constructor",
      "signature": "constructor"
    },
    {
      "anonymous": false,
      "inputs": [
        {
          "indexed": true,
          "name": "index",
          "type": "uint256"
        }
      ],
      "name": "benevoleSubscribed",
      "type": "event",
      "signature": "0x53bc41f3a5c5334d2d55032719958b9032e339706e4a77d1c26f5f3994aeb7d3"
    },
    {
      "constant": false,
      "inputs": [
        {
          "name": "_nameEvent",
          "type": "string"
        },
        {
          "name": "_limitReputation",
          "type": "uint256"
        },
        {
          "name": "_recompenseReputation",
          "type": "uint256"
        }
      ],
      "name": "createEvent",
      "outputs": [
        {
          "name": "",
          "type": "bool"
        }
      ],
      "payable": false,
      "stateMutability": "nonpayable",
      "type": "function",
      "signature": "0x9e9580f6"
    },
    {
      "constant": false,
      "inputs": [],
      "name": "addBenevole",
      "outputs": [
        {
          "name": "",
          "type": "bool"
        }
      ],
      "payable": false,
      "stateMutability": "nonpayable",
      "type": "function",
      "signature": "0x54e92dd9"
    },
    {
      "constant": false,
      "inputs": [
        {
          "name": "_eventID",
          "type": "uint256"
        },
        {
          "name": "_benevoleID",
          "type": "uint256"
        }
      ],
      "name": "subscribeToEvent",
      "outputs": [
        {
          "name": "",
          "type": "bool"
        }
      ],
      "payable": false,
      "stateMutability": "nonpayable",
      "type": "function",
      "signature": "0xe6d82c4b"
    },
    {
      "constant": false,
      "inputs": [
        {
          "name": "_benevoleID",
          "type": "uint256"
        }
      ],
      "name": "blacklistBenevole",
      "outputs": [
        {
          "name": "",
          "type": "bool"
        }
      ],
      "payable": false,
      "stateMutability": "nonpayable",
      "type": "function",
      "signature": "0xabe9a1a8"
    },
    {
      "constant": true,
      "inputs": [
        {
          "name": "_benevoleID",
          "type": "uint256"
        }
      ],
      "name": "getXPBenevole",
      "outputs": [
        {
          "name": "",
          "type": "uint256"
        }
      ],
      "payable": false,
      "stateMutability": "view",
      "type": "function",
      "signature": "0x23303ed3"
    }
  ],
  "bytecode": "0x608060405234801561001057600080fd5b50610df9806100206000396000f3fe6080604052600436106100ba576000357c0100000000000000000000000000000000000000000000000000000000900463ffffffff16806304424a71146100bf5780630b7914301461012457806323303ed31461022757806339e2e46f1461027657806354e92dd9146102a15780636c0c7851146102d05780636c7fe4f7146102fb5780639e9580f614610376578063abe9a1a81461046a578063d512cf8e146104bd578063dc4251391461054a578063e6d82c4b146105cf575b600080fd5b3480156100cb57600080fd5b5061010e600480360360208110156100e257600080fd5b81019080803573ffffffffffffffffffffffffffffffffffffffff16906020019092919050505061062c565b6040518082815260200191505060405180910390f35b34801561013057600080fd5b5061015d6004803603602081101561014757600080fd5b8101908080359060200190929190505050610644565b60405180806020018773ffffffffffffffffffffffffffffffffffffffff1673ffffffffffffffffffffffffffffffffffffffff168152602001868152602001858152602001848152602001838152602001828103825288818151815260200191508051906020019080838360005b838110156101e75780820151818401526020810190506101cc565b50505050905090810190601f1680156102145780820380516001836020036101000a031916815260200191505b5097505050505050505060405180910390f35b34801561023357600080fd5b506102606004803603602081101561024a57600080fd5b8101908080359060200190929190505050610747565b6040518082815260200191505060405180910390f35b34801561028257600080fd5b5061028b610771565b6040518082815260200191505060405180910390f35b3480156102ad57600080fd5b506102b6610777565b604051808215151515815260200191505060405180910390f35b3480156102dc57600080fd5b506102e5610869565b6040518082815260200191505060405180910390f35b34801561030757600080fd5b506103346004803603602081101561031e57600080fd5b810190808035906020019092919050505061086f565b604051808273ffffffffffffffffffffffffffffffffffffffff1673ffffffffffffffffffffffffffffffffffffffff16815260200191505060405180910390f35b34801561038257600080fd5b506104506004803603606081101561039957600080fd5b81019080803590602001906401000000008111156103b657600080fd5b8201836020820111156103c857600080fd5b803590602001918460018302840111640100000000831117156103ea57600080fd5b91908080601f016020809104026020016040519081016040528093929190818152602001838380828437600081840152601f19601f82011690508083019250505050505050919291929080359060200190929190803590602001909291905050506108a2565b604051808215151515815260200191505060405180910390f35b34801561047657600080fd5b506104a36004803603602081101561048d57600080fd5b8101908080359060200190929190505050610a67565b604051808215151515815260200191505060405180910390f35b3480156104c957600080fd5b506104f6600480360360208110156104e057600080fd5b8101908080359060200190929190505050610aa6565b604051808473ffffffffffffffffffffffffffffffffffffffff1673ffffffffffffffffffffffffffffffffffffffff16815260200183815260200182151515158152602001935050505060405180910390f35b34801561055657600080fd5b5061058d6004803603604081101561056d57600080fd5b810190808035906020019092919080359060200190929190505050610b0c565b604051808273ffffffffffffffffffffffffffffffffffffffff1673ffffffffffffffffffffffffffffffffffffffff16815260200191505060405180910390f35b3480156105db57600080fd5b50610612600480360360408110156105f257600080fd5b810190808035906020019092919080359060200190929190505050610b59565b604051808215151515815260200191505060405180910390f35b60066020528060005260406000206000915090505481565b60028181548110151561065357fe5b9060005260206000209060060201600091509050806000018054600181600116156101000203166002900480601f0160208091040260200160405190810160405280929190818152602001828054600181600116156101000203166002900480156106ff5780601f106106d4576101008083540402835291602001916106ff565b820191906000526020600020905b8154815290600101906020018083116106e257829003601f168201915b5050505050908060010160009054906101000a900473ffffffffffffffffffffffffffffffffffffffff16908060020154908060030154908060040154908060050154905086565b600060018281548110151561075857fe5b9060005260206000209060030201600101549050919050565b60045481565b600060016060604051908101604052803373ffffffffffffffffffffffffffffffffffffffff16815260200160648152602001600015158152509080600181540180825580915050906001820390600052602060002090600302016000909192909190915060008201518160000160006101000a81548173ffffffffffffffffffffffffffffffffffffffff021916908373ffffffffffffffffffffffffffffffffffffffff1602179055506020820151816001015560408201518160020160006101000a81548160ff0219169083151502179055505050506003600081548092919060010191905055506001905090565b60035481565b60056020528060005260406000206000915054906101000a900473ffffffffffffffffffffffffffffffffffffffff1681565b6000600260c0604051908101604052808681526020013373ffffffffffffffffffffffffffffffffffffffff16815260200161012c81526020016000815260200185815260200184815250908060018154018082558091505090600182039060005260206000209060060201600090919290919091506000820151816000019080519060200190610934929190610d28565b5060208201518160010160006101000a81548173ffffffffffffffffffffffffffffffffffffffff021916908373ffffffffffffffffffffffffffffffffffffffff16021790555060408201518160020155606082015181600301556080820151816004015560a08201518160050155505050600460008154809291906001019190505550600660003373ffffffffffffffffffffffffffffffffffffffff1673ffffffffffffffffffffffffffffffffffffffff168152602001908152602001600020600081548092919060010191905055503360056000600454815260200190815260200160002060006101000a81548173ffffffffffffffffffffffffffffffffffffffff021916908373ffffffffffffffffffffffffffffffffffffffff160217905550600190509392505050565b600060018083815481101515610a7957fe5b906000526020600020906003020160020160006101000a81548160ff021916908315150217905550919050565b600181815481101515610ab557fe5b90600052602060002090600302016000915090508060000160009054906101000a900473ffffffffffffffffffffffffffffffffffffffff16908060010154908060020160009054906101000a900460ff16905083565b600060205281600052604060002081815481101515610b2757fe5b906000526020600020016000915091509054906101000a900473ffffffffffffffffffffffffffffffffffffffff1681565b6000600283815481101515610b6a57fe5b906000526020600020906006020160040154600183815481101515610b8b57fe5b90600052602060002090600302016001015410151515610baa57600080fd5b600182815481101515610bb957fe5b906000526020600020906003020160020160009054906101000a900460ff16151515610be457600080fd5b600283815481101515610bf357fe5b9060005260206000209060060201600301600081548092919060010191905055506000808481526020019081526020016000203390806001815401808255809150509060018203906000526020600020016000909192909190916101000a81548173ffffffffffffffffffffffffffffffffffffffff021916908373ffffffffffffffffffffffffffffffffffffffff16021790555050600283815481101515610c9957fe5b906000526020600020906006020160050154600183815481101515610cba57fe5b90600052602060002090600302016001015401600183815481101515610cdc57fe5b906000526020600020906003020160010181905550817f53bc41f3a5c5334d2d55032719958b9032e339706e4a77d1c26f5f3994aeb7d360405160405180910390a26001905092915050565b828054600181600116156101000203166002900490600052602060002090601f016020900481019282601f10610d6957805160ff1916838001178555610d97565b82800160010185558215610d97579182015b82811115610d96578251825591602001919060010190610d7b565b5b509050610da49190610da8565b5090565b610dca91905b80821115610dc6576000816000905550600101610dae565b5090565b9056fea165627a7a72305820b8bc5e87c2a0a68fa3bb8c685264963a94a01e0643420b644ce96960c947c44b0029",
  "source": "pragma solidity ^0.5.0;\r\n\r\n/** @title Leases Smart Contract */\r\ncontract BenevoleConnect {\r\n\r\n  // struct for Benevoles\r\n  struct Benevole {\r\n    address payable  benevole;\r\n    uint reputation;\r\n    bool isBlacklisted;\r\n  }\r\n\r\n  // Struct for Events\r\n  struct Event {\r\n    string nameEvent;\r\n    address payable organizer;\r\n    uint nbBenevolesNeeded;\r\n    uint nbParticipants;\r\n    uint limitReputation;\r\n    uint recompenseReputation;\r\n  }\r\n\r\n  mapping (uint => address[]) public eventIDToListParticipantsBenevoles;\r\n\r\n  Benevole[] public benevoles;\r\n  Event[] public events;\r\n\r\n  uint public benevolesCount;\r\n  uint public eventsCount;\r\n\r\n\r\n  // keep track of lease ownership -- index of lease => address of owner\r\n  mapping (uint => address) public eventIDToOrganizer;\r\n  // keep track of number of lease by owner -- address of owner => number of leases\r\n  mapping (address => uint) public organizerEventsCount;\r\n\r\n  event benevoleSubscribed (\r\n    uint indexed index\r\n  );\r\n\r\n  constructor() public {\r\n    // empty constructor -- nothing to do\r\n  }\r\n\r\n  function createEvent(\r\n    string memory _nameEvent,\r\n    uint _limitReputation,\r\n    uint _recompenseReputation\r\n  )\r\n  public\r\n  returns(bool)\r\n  {\r\n\r\n    events.push(\r\n      Event(\r\n        _nameEvent,\r\n        msg.sender,\r\n        300,\r\n        0,\r\n        _limitReputation,\r\n        _recompenseReputation\r\n      )\r\n    );\r\n\r\n    eventsCount++;\r\n    organizerEventsCount[msg.sender]++;\r\n    eventIDToOrganizer[eventsCount] = msg.sender;\r\n    return true;\r\n  }\r\n\r\n  function addBenevole()\r\n  public\r\n  returns(bool)\r\n  {\r\n    benevoles.push(\r\n      Benevole(\r\n        msg.sender,\r\n        100,\r\n        false\r\n      )\r\n    );\r\n    benevolesCount++;\r\n    return true;\r\n  }\r\n\r\n  function subscribeToEvent(uint _eventID, uint _benevoleID)\r\n  public\r\n  returns(bool)\r\n  {\r\n    require(benevoles[_benevoleID].reputation >= events[_eventID].limitReputation);\r\n    require(!benevoles[_benevoleID].isBlacklisted);\r\n    events[_eventID].nbParticipants++;\r\n    eventIDToListParticipantsBenevoles[_eventID].push(\r\n      msg.sender\r\n    );\r\n\r\n    benevoles[_benevoleID].reputation = benevoles[_benevoleID].reputation + events[_eventID].recompenseReputation;\r\n    emit benevoleSubscribed(_benevoleID);\r\n    return true;\r\n  }\r\n\r\n  function blacklistBenevole(uint _benevoleID)\r\n  public\r\n  returns(bool)\r\n  {\r\n    benevoles[_benevoleID].isBlacklisted = true;\r\n  }\r\n\r\n  function getXPBenevole(uint _benevoleID)\r\n  public\r\n  view\r\n  returns(uint)\r\n  {\r\n    return benevoles[_benevoleID].reputation;\r\n  }\r\n\r\n}\r\n\r\n",
  "sourcePath": "C:/Users/sarah.mauret/Dev/woozwoo/src/contracts/BenevoleConnect.sol",
  "compiler": {
    "name": "solc",
    "version": "0.5.0+commit.1d4f565a.Emscripten.clang"
  },
  "schemaVersion": "3.0.2",
  "updatedAt": "2019-03-31T14:23:58.966Z",
  "devdoc": {
    "methods": {},
    "title": "Leases Smart Contract "
  },
  "userdoc": {
    "methods": {}
  }
}